{
  "abi": [
    {
      "inputs": [],
      "name": "CoffeeBreak",
      "type": "error"
    },
    {
      "inputs": [],
      "name": "increment",
      "outputs": [],
      "stateMutability": "nonpayable",
      "type": "function"
    },
    {
      "inputs": [],
      "name": "number",
      "outputs": [
        {
          "internalType": "uint256",
          "name": "",
          "type": "uint256"
        }
      ],
      "stateMutability": "view",
      "type": "function"
    },
    {
      "inputs": [
        {
          "internalType": "uint256",
          "name": "newNumber",
          "type": "uint256"
        },
        {
          "internalType": "bool",
          "name": "inLuck",
          "type": "bool"
        }
      ],
      "name": "setNumber",
      "outputs": [],
      "stateMutability": "nonpayable",
      "type": "function"
    }
  ],
  "bytecode": {
    "object": "0x608060405234801561001057600080fd5b50610161806100206000396000f3fe608060405234801561001057600080fd5b50600436106100415760003560e01c80637705040d146100465780638381f58a1461005b578063d09de08a14610076575b600080fd5b6100596100543660046100cf565b61007e565b005b61006460005481565b60405190815260200160405180910390f35b6100596100b9565b600082905562c0ffee8214801561009757506001811515145b156100b55760405163030425a560e01b815260040160405180910390fd5b5050565b6000805490806100c883610104565b9190505550565b600080604083850312156100e257600080fd5b82359150602083013580151581146100f957600080fd5b809150509250929050565b60006001820161012457634e487b7160e01b600052601160045260246000fd5b506001019056fea26469706673582212204311992cff2450c530dbc4f4ac6e7d13cd6d1e902390f1baa90e5a9cf4acdcbe64736f6c63430008150033",
    "linkReferences": {}
  },
  "methodIdentifiers": {
    "increment()": "d09de08a",
    "number()": "8381f58a",
    "setNumber(uint256,bool)": "7705040d"
  },
  "id": 23
}